S013000044656275672F6B65797061642E7331394D
S315200000000248854600F0E4F8FEE7C04600C001201D
S3152000001080B582B000AF78607B68042B19D87B68E6
S315200000209A000E4BD3181B689F460D4B10221A7050
S315200000300FE00B4B20221A700BE0094B40221A705E
S3152000004007E0074B80221A7003E0054B00221A7046
S31520000050C046C046BD4602B080BDC046E80100206D
S31520000060150C024080B582B000AF124AFB1D1278F3
S315200000701A70FB1D1B780822134001D0042315E0BB
S31520000080FB1D1B780422134001D003230EE0FB1D29
S315200000901B780222134001D0022307E0FB1D1B78A8
S315200000A00122134001D0012300E000231800BD46A1
S315200000B002B080BD110C024080B500AF024B034A4E
S315200000C01A60C046BD4680BD000C024055550055FD
S315200000D090B587B000AF3B00164A13CA13C3126807
S315200000E01A6001237B6119E07B691800FFF790FFF6
S315200000F0FFF7B8FF03003B613B69002B0BD00020C4
S31520000100FFF786FF7B69013B9A003B69013BD318C9
S315200001103A00D35C09E07B6901337B617B69042B60
S31520000120E2DD0020FFF774FFFF231800BD4607B06D
S3152000013090BDC046FC01002080B584B000AF02000F
S31520000140FB1D1A70FB1D1B780F2B34D89A001E4BF3
S31520000150D3181B689F463F23FB602CE03023FB60AF
S3152000016029E05B23FB6026E04F23FB6023E0662328
S31520000170FB6020E06D23FB601DE07D23FB601AE021
S315200001800323FB6017E07F23FB6014E06F23FB60F3
S3152000019011E07723FB600EE07C23FB600BE0382325
S315200001A0FB6008E07923FB6005E07123FB6002E039
S315200001B05E23FB60C046054BFA68D2B21A70C04671
S315200001C0BD4604B080BDC0460C020020140C02407F
S315200001D080B500AFFFF770FFFFF77AFF0300180026
S315200001E0FFF7AAFFF8E7C0464A0000202A000020B1
S315200001F0320000203A000020420000200102030ABB
S315200002000405060B0708090C0E000F0D56010020E9
S315200002105C01002062010020680100206E010020A0
S31520000220740100207A010020800100208601002030
S315200002308C01002092010020980100209E010020C0
S31120000240B0010020A4010020AA0100202B
S70520000000DA
